1003852995000107110042490114  Async Open Source                  Sao Carlos                    SP00350153942007060120070630331
11Orlando Damiano                   02212                      Jd Macarengo   13560450SalesPerson                 000033760125
5090117749765480103238426117  20070601SP011  0002221102T000000010120000000001007000000000006042000000000000000000000018000600N
5090117749765480103238426117  20070601SP011  0002221102T000000010120000000001007000000000018126000000000000000000000018001800N
5490117749765480011  000222110200000100000000009999000000080000000001000000000000005000000001007000000000000000000000005001800
5490117749765480011  000222110200000200000000010000000000080000000001000000000000005000000001007000000000000000000000005000600
5490117749765480011  0002221102   991              000000000000000000000000000000006000000000000000000000000000000000000000000
5490117749765480011  0002221102   992              000000000000000000000000000000006000000000000000000000000000000000000000000
5490117749765480011  0002221102   999              000000000000000000000000000000012000000000000000000000000000000000000000000
7520070601200706300000000001000000000000Description                                          un    000000000000000000000000000
7520070601200706300000000000999900000000Description                                          un    000000000000000000000000000
9003852995000107110042490114  5000000002                                                                                     4
9003852995000107110042490114  5400000005                                                                                     4
9003852995000107110042490114  7500000002                                                                                     4
9003852995000107110042490114  9900000015                                                                                     4
