1024198774732235982737266222  Moda Stoq                          Sao Carlos                    SP00321182712007060120070630331
11Avendia Sao Carlos                02333                      Centro         13560001SalesPerson                 000048763983
5090117749765480103238426117  20070601SP011  0002221102T000000010120000000001007000000000006042000000000000000000000018000600N
5090117749765480103238426117  20070601SP011  0002221102T000000010120000000001007000000000018126000000000000000000000018001800N
5490117749765480011  000222110200000100000000009999000000080000000001000000000000005000000001007000000000000000000000005001800
5490117749765480011  000222110200000200000000010000000000080000000001000000000000005000000001007000000000000000000000005000600
5490117749765480011  0002221102   991              000000000000000000000000000000006000000000000000000000000000000000000000000
5490117749765480011  0002221102   992              000000000000000000000000000000006000000000000000000000000000000000000000000
5490117749765480011  0002221102   999              000000000000000000000000000000012000000000000000000000000000000000000000000
60R06200700000000009999000000000000100000000000000100000000000000010I                                                         
74200706150000000000999900000000000990000000012375100000000000000              SP                                             
7520070601200706300000000001000000000000Description                                          un    000000000000000000000000000
7520070601200706300000000000999900000000Description                                          un    000000000000000000000000000
9024198774732235982737266222  5000000002                                                                                     6
9024198774732235982737266222  5400000005                                                                                     6
9024198774732235982737266222  6000000001                                                                                     6
9024198774732235982737266222  7400000001                                                                                     6
9024198774732235982737266222  7500000002                                                                                     6
9024198774732235982737266222  9900000019                                                                                     6
