1003852995000107110042490114  Async Open Source                  Sao Carlos                    SP00350153942007060120070630331
11Orlando Damiano                   02212                      Jd Macarengo   13560450Async Open Source           000033760125
5000000000000000110042490114  20070601SP011  0002221102T000000010137600000001013760000000018247000000000000000000000018001800N
5400000000000000011  000222110200000100000000009999000000080000000001000000000000010000000001013760000000000000000000000001800
5400000000000000011  0002221102   991              000000000000000000000000000000006000000000000000000000000000000000000000000
5400000000000000011  0002221102   992              000000000000000000000000000000006000000000000000000000000000000000000000000
5400000000000000011  0002221102   999              000000000000000000000000000000012000000000000000000000000000000000000000000
7520070601200706010000000000999900000000Description                                          un    000000000000000000000000000
9003852995000107110042490114  5000000001                                                                                     4
9003852995000107110042490114  5400000004                                                                                     4
9003852995000107110042490114  7500000001                                                                                     4
9003852995000107110042490114  9900000012                                                                                     4
